{
  "contractName": "cloudStorage",
  "abi": [
    {
      "constant": true,
      "inputs": [],
      "name": "owner",
      "outputs": [
        {
          "name": "",
          "type": "address"
        }
      ],
      "payable": false,
      "stateMutability": "view",
      "type": "function",
      "signature": "0x8da5cb5b"
    },
    {
      "inputs": [
        {
          "name": "_wl",
          "type": "address"
        },
        {
          "name": "_ch",
          "type": "address"
        }
      ],
      "payable": false,
      "stateMutability": "nonpayable",
      "type": "constructor",
      "signature": "constructor"
    },
    {
      "anonymous": false,
      "inputs": [
        {
          "indexed": false,
          "name": "fileName",
          "type": "bytes"
        },
        {
          "indexed": false,
          "name": "ipfsHash",
          "type": "bytes"
        }
      ],
      "name": "FileAdded",
      "type": "event",
      "signature": "0x8bf85d17820ff1ba9e1f46ed1896b5c54e27091df0ca23b77652059745ee1d03"
    },
    {
      "anonymous": false,
      "inputs": [
        {
          "indexed": false,
          "name": "fileName",
          "type": "bytes"
        }
      ],
      "name": "FileRemoved",
      "type": "event",
      "signature": "0x02d56c5cbc21048b4ced8d6c3d50cdf72ba12e7cd56cb786a0e0b090bd721213"
    },
    {
      "constant": false,
      "inputs": [
        {
          "name": "_FileName",
          "type": "bytes"
        },
        {
          "name": "_ipfsHash",
          "type": "bytes"
        }
      ],
      "name": "addOrUpdateFile",
      "outputs": [],
      "payable": false,
      "stateMutability": "nonpayable",
      "type": "function",
      "signature": "0x72779b43"
    },
    {
      "constant": false,
      "inputs": [
        {
          "name": "_FileName",
          "type": "bytes"
        }
      ],
      "name": "removeFile",
      "outputs": [],
      "payable": false,
      "stateMutability": "nonpayable",
      "type": "function",
      "signature": "0xc5958bda"
    },
    {
      "constant": true,
      "inputs": [
        {
          "name": "_FileName",
          "type": "bytes"
        }
      ],
      "name": "getFile",
      "outputs": [
        {
          "name": "",
          "type": "bytes"
        }
      ],
      "payable": false,
      "stateMutability": "view",
      "type": "function",
      "signature": "0x9c63ffba"
    },
    {
      "constant": false,
      "inputs": [
        {
          "name": "_channelId",
          "type": "bytes32"
        },
        {
          "name": "_sender",
          "type": "address"
        },
        {
          "name": "_receiver",
          "type": "address"
        },
        {
          "name": "_ipfsHash",
          "type": "bytes"
        }
      ],
      "name": "_openChannel",
      "outputs": [],
      "payable": false,
      "stateMutability": "nonpayable",
      "type": "function",
      "signature": "0xcd9e0e90"
    },
    {
      "constant": false,
      "inputs": [
        {
          "name": "_fileName",
          "type": "bytes"
        },
        {
          "name": "_channelId",
          "type": "bytes32"
        },
        {
          "name": "_ipfshash",
          "type": "bytes"
        },
        {
          "name": "msgHash",
          "type": "bytes32"
        },
        {
          "name": "v",
          "type": "uint8"
        },
        {
          "name": "r",
          "type": "bytes32"
        },
        {
          "name": "s",
          "type": "bytes32"
        }
      ],
      "name": "_closeChannel",
      "outputs": [],
      "payable": false,
      "stateMutability": "nonpayable",
      "type": "function",
      "signature": "0xf6af4a3f"
    }
  ],
  "bytecode": "0x608060405234801561001057600080fd5b506040516040806112188339810180604052604081101561003057600080fd5b810190808051906020019092919080519060200190929190505050336000806101000a81548173ffffffffffffffffffffffffffffffffffffffff021916908373ffffffffffffffffffffffffffffffffffffffff16021790555081600260006101000a81548173ffffffffffffffffffffffffffffffffffffffff021916908373ffffffffffffffffffffffffffffffffffffffff16021790555080600360006101000a81548173ffffffffffffffffffffffffffffffffffffffff021916908373ffffffffffffffffffffffffffffffffffffffff16021790555050506110fa8061011e6000396000f3fe608060405260043610610078576000357c0100000000000000000000000000000000000000000000000000000000900463ffffffff16806372779b431461007d5780638da5cb5b146101dc5780639c63ffba14610233578063c5958bda14610374578063cd9e0e901461043c578063f6af4a3f1461054e575b600080fd5b34801561008957600080fd5b506101da600480360360408110156100a057600080fd5b81019080803590602001906401000000008111156100bd57600080fd5b8201836020820111156100cf57600080fd5b803590602001918460018302840111640100000000831117156100f157600080fd5b91908080601f016020809104026020016040519081016040528093929190818152602001838380828437600081840152601f19601f8201169050808301925050505050505091929192908035906020019064010000000081111561015457600080fd5b82018360208201111561016657600080fd5b8035906020019184600183028401116401000000008311171561018857600080fd5b91908080601f016020809104026020016040519081016040528093929190818152602001838380828437600081840152601f19601f8201169050808301925050505050505091929192905050506106e2565b005b3480156101e857600080fd5b506101f16108ca565b604051808273ffffffffffffffffffffffffffffffffffffffff1673ffffffffffffffffffffffffffffffffffffffff16815260200191505060405180910390f35b34801561023f57600080fd5b506102f96004803603602081101561025657600080fd5b810190808035906020019064010000000081111561027357600080fd5b82018360208201111561028557600080fd5b803590602001918460018302840111640100000000831117156102a757600080fd5b91908080601f016020809104026020016040519081016040528093929190818152602001838380828437600081840152601f19601f8201169050808301925050505050505091929192905050506108ef565b6040518080602001828103825283818151815260200191508051906020019080838360005b8381101561033957808201518184015260208101905061031e565b50505050905090810190601f1680156103665780820380516001836020036101000a031916815260200191505b509250505060405180910390f35b34801561038057600080fd5b5061043a6004803603602081101561039757600080fd5b81019080803590602001906401000000008111156103b457600080fd5b8201836020820111156103c657600080fd5b803590602001918460018302840111640100000000831117156103e857600080fd5b91908080601f016020809104026020016040519081016040528093929190818152602001838380828437600081840152601f19601f820116905080830192505050505050509192919290505050610b54565b005b34801561044857600080fd5b5061054c6004803603608081101561045f57600080fd5b8101908080359060200190929190803573ffffffffffffffffffffffffffffffffffffffff169060200190929190803573ffffffffffffffffffffffffffffffffffffffff169060200190929190803590602001906401000000008111156104c657600080fd5b8201836020820111156104d857600080fd5b803590602001918460018302840111640100000000831117156104fa57600080fd5b91908080601f016020809104026020016040519081016040528093929190818152602001838380828437600081840152601f19601f820116905080830192505050505050509192919290505050610cc5565b005b34801561055a57600080fd5b506106e0600480360360e081101561057157600080fd5b810190808035906020019064010000000081111561058e57600080fd5b8201836020820111156105a057600080fd5b803590602001918460018302840111640100000000831117156105c257600080fd5b91908080601f016020809104026020016040519081016040528093929190818152602001838380828437600081840152601f19601f820116905080830192505050505050509192919290803590602001909291908035906020019064010000000081111561062f57600080fd5b82018360208201111561064157600080fd5b8035906020019184600183028401116401000000008311171561066357600080fd5b91908080601f016020809104026020016040519081016040528093929190818152602001838380828437600081840152601f19601f82011690508083019250505050505050919291929080359060200190929190803560ff1690602001909291908035906020019092919080359060200190929190505050610ea4565b005b6000809054906101000a900473ffffffffffffffffffffffffffffffffffffffff1673ffffffffffffffffffffffffffffffffffffffff163373ffffffffffffffffffffffffffffffffffffffff1614151561073d57600080fd5b806001836040518082805190602001908083835b6020831015156107765780518252602082019150602081019050602083039250610751565b6001836020036101000a038019825116818451168082178552505050505050905001915050908152602001604051809103902090805190602001906107bc929190610fe1565b507f8bf85d17820ff1ba9e1f46ed1896b5c54e27091df0ca23b77652059745ee1d038282604051808060200180602001838103835285818151815260200191508051906020019080838360005b83811015610824578082015181840152602081019050610809565b50505050905090810190601f1680156108515780820380516001836020036101000a031916815260200191505b50838103825284818151815260200191508051906020019080838360005b8381101561088a57808201518184015260208101905061086f565b50505050905090810190601f1680156108b75780820380516001836020036101000a031916815260200191505b5094505050505060405180910390a15050565b6000809054906101000a900473ffffffffffffffffffffffffffffffffffffffff1681565b60606000809054906101000a900473ffffffffffffffffffffffffffffffffffffffff1673ffffffffffffffffffffffffffffffffffffffff163373ffffffffffffffffffffffffffffffffffffffff161480610a3e5750600260009054906101000a900473ffffffffffffffffffffffffffffffffffffffff1673ffffffffffffffffffffffffffffffffffffffff16633f18064a336040518263ffffffff167c0100000000000000000000000000000000000000000000000000000000028152600401808273ffffffffffffffffffffffffffffffffffffffff1673ffffffffffffffffffffffffffffffffffffffff16815260200191505060206040518083038186803b158015610a0257600080fd5b505afa158015610a16573d6000803e3d6000fd5b505050506040513d6020811015610a2c57600080fd5b81019080805190602001909291905050505b1515610a4957600080fd5b6001826040518082805190602001908083835b602083101515610a815780518252602082019150602081019050602083039250610a5c565b6001836020036101000a03801982511681845116808217855250505050505090500191505090815260200160405180910390208054600181600116156101000203166002900480601f016020809104026020016040519081016040528092919081815260200182805460018160011615610100020316600290048015610b485780601f10610b1d57610100808354040283529160200191610b48565b820191906000526020600020905b815481529060010190602001808311610b2b57829003601f168201915b50505050509050919050565b6000809054906101000a900473ffffffffffffffffffffffffffffffffffffffff1673ffffffffffffffffffffffffffffffffffffffff163373ffffffffffffffffffffffffffffffffffffffff16141515610baf57600080fd5b6001816040518082805190602001908083835b602083101515610be75780518252602082019150602081019050602083039250610bc2565b6001836020036101000a03801982511681845116808217855250505050505090500191505090815260200160405180910390206000610c269190611061565b7f02d56c5cbc21048b4ced8d6c3d50cdf72ba12e7cd56cb786a0e0b090bd721213816040518080602001828103825283818151815260200191508051906020019080838360005b83811015610c88578082015181840152602081019050610c6d565b50505050905090810190601f168015610cb55780820380516001836020036101000a031916815260200191505b509250505060405180910390a150565b6000809054906101000a900473ffffffffffffffffffffffffffffffffffffffff1673ffffffffffffffffffffffffffffffffffffffff163373ffffffffffffffffffffffffffffffffffffffff16141515610d2057600080fd5b600360009054906101000a900473ffffffffffffffffffffffffffffffffffffffff1673ffffffffffffffffffffffffffffffffffffffff1663901777ff858585856040518563ffffffff167c0100000000000000000000000000000000000000000000000000000000028152600401808581526020018473ffffffffffffffffffffffffffffffffffffffff1673ffffffffffffffffffffffffffffffffffffffff1681526020018373ffffffffffffffffffffffffffffffffffffffff1673ffffffffffffffffffffffffffffffffffffffff16815260200180602001828103825283818151815260200191508051906020019080838360005b83811015610e37578082015181840152602081019050610e1c565b50505050905090810190601f168015610e645780820380516001836020036101000a031916815260200191505b5095505050505050600060405180830381600087803b158015610e8657600080fd5b505af1158015610e9a573d6000803e3d6000fd5b5050505050505050565b6000809054906101000a900473ffffffffffffffffffffffffffffffffffffffff1673ffffffffffffffffffffffffffffffffffffffff163373ffffffffffffffffffffffffffffffffffffffff16141515610eff57600080fd5b600360009054906101000a900473ffffffffffffffffffffffffffffffffffffffff1673ffffffffffffffffffffffffffffffffffffffff16638b60377787868686866040518663ffffffff167c0100000000000000000000000000000000000000000000000000000000028152600401808681526020018581526020018460ff1660ff16815260200183815260200182815260200195505050505050600060405180830381600087803b158015610fb657600080fd5b505af1158015610fca573d6000803e3d6000fd5b50505050610fd887866106e2565b50505050505050565b828054600181600116156101000203166002900490600052602060002090601f016020900481019282601f1061102257805160ff1916838001178555611050565b82800160010185558215611050579182015b8281111561104f578251825591602001919060010190611034565b5b50905061105d91906110a9565b5090565b50805460018160011615610100020316600290046000825580601f1061108757506110a6565b601f0160209004906000526020600020908101906110a591906110a9565b5b50565b6110cb91905b808211156110c75760008160009055506001016110af565b5090565b9056fea165627a7a723058200724d4bc5b62e175cba866e4ddd07f77bf2eaadc2161e2e4aef720b27d8a3d590029",
  "source": "pragma solidity ^0.5.0;\nimport \"./whiteList.sol\";\nimport \"./channel.sol\";\n\ncontract cloudStorage {\n\t\n    event FileAdded(bytes fileName, bytes ipfsHash);\n    event FileRemoved(bytes fileName);\n\n    address public owner;\n\n    mapping(bytes => bytes) File;\n    \n    whiteList _whiteList;\n\n    Channel _channel;\n\n    constructor(address _wl, address _ch) public {\n        owner = msg.sender;\n        _whiteList = whiteList(_wl);\n        _channel = Channel(_ch);\n    }\n\n    modifier onlyOwner() {\n        require(msg.sender == owner);\n        _;\n    }\n\n    function addOrUpdateFile(bytes memory _FileName, bytes memory _ipfsHash) \n\t\tpublic \n\t\tonlyOwner\n\t{\n        File[_FileName] = _ipfsHash;\n        emit FileAdded(_FileName, _ipfsHash);\n    }\n\n    function removeFile(bytes memory _FileName) \n\t\tpublic\n\t\tonlyOwner\n\t{\n        delete File[_FileName];\n        emit FileRemoved(_FileName);\n    }\n\n    function getFile(bytes memory _FileName) public view returns (bytes memory)  {\n        require(msg.sender == owner || _whiteList.getWhitelisted(msg.sender));\n        return File[_FileName];\n    }\n\n    function _openChannel(bytes32 _channelId, address _sender, address _receiver, bytes memory _ipfsHash)\n        public\n        onlyOwner\n    {\n        _channel.openChannel(_channelId, _sender, _receiver, _ipfsHash);\n    }\n\n    function _closeChannel(bytes memory _fileName, bytes32 _channelId, bytes memory _ipfshash, bytes32 msgHash, uint8 v, bytes32 r, bytes32 s)\n        public\n        onlyOwner\n    {\n        _channel.closeChannel(_channelId, msgHash, v, r, s);\n        addOrUpdateFile(_fileName, _ipfshash);\n    }\n}\n",
  "sourcePath": "/home/wayne/Desktop/blockchain/Semester2/AdSmartContract/dev-tools-truffle/contracts/cloudStorage.sol",
  "compiler": {
    "name": "solc",
    "version": "0.5.0+commit.1d4f565a.Emscripten.clang"
  },
  "schemaVersion": "3.0.3",
  "updatedAt": "2019-04-01T02:14:17.429Z",
  "devdoc": {
    "methods": {}
  },
  "userdoc": {
    "methods": {}
  }
}