{
  "contractName": "cloudStorage",
  "abi": [
    {
      "constant": true,
      "inputs": [],
      "name": "owner",
      "outputs": [
        {
          "name": "",
          "type": "address"
        }
      ],
      "payable": false,
      "stateMutability": "view",
      "type": "function",
      "signature": "0x8da5cb5b"
    },
    {
      "inputs": [
        {
          "name": "_wl",
          "type": "address"
        },
        {
          "name": "_ch",
          "type": "address"
        }
      ],
      "payable": false,
      "stateMutability": "nonpayable",
      "type": "constructor",
      "signature": "constructor"
    },
    {
      "anonymous": false,
      "inputs": [
        {
          "indexed": false,
          "name": "fileName",
          "type": "bytes"
        },
        {
          "indexed": false,
          "name": "ipfsHash",
          "type": "bytes"
        }
      ],
      "name": "FileAdded",
      "type": "event",
      "signature": "0x8bf85d17820ff1ba9e1f46ed1896b5c54e27091df0ca23b77652059745ee1d03"
    },
    {
      "anonymous": false,
      "inputs": [
        {
          "indexed": false,
          "name": "fileName",
          "type": "bytes"
        }
      ],
      "name": "FileRemoved",
      "type": "event",
      "signature": "0x02d56c5cbc21048b4ced8d6c3d50cdf72ba12e7cd56cb786a0e0b090bd721213"
    },
    {
      "constant": false,
      "inputs": [
        {
          "name": "_FileName",
          "type": "bytes"
        },
        {
          "name": "_ipfsHash",
          "type": "bytes"
        }
      ],
      "name": "addOrUpdateFile",
      "outputs": [],
      "payable": false,
      "stateMutability": "nonpayable",
      "type": "function",
      "signature": "0x72779b43"
    },
    {
      "constant": false,
      "inputs": [
        {
          "name": "_FileName",
          "type": "bytes"
        }
      ],
      "name": "removeFile",
      "outputs": [],
      "payable": false,
      "stateMutability": "nonpayable",
      "type": "function",
      "signature": "0xc5958bda"
    },
    {
      "constant": true,
      "inputs": [
        {
          "name": "_FileName",
          "type": "bytes"
        }
      ],
      "name": "getFile",
      "outputs": [
        {
          "name": "",
          "type": "bytes"
        }
      ],
      "payable": false,
      "stateMutability": "view",
      "type": "function",
      "signature": "0x9c63ffba"
    },
    {
      "constant": false,
      "inputs": [
        {
          "name": "_channelId",
          "type": "bytes32"
        },
        {
          "name": "_sender",
          "type": "address"
        },
        {
          "name": "_receiver",
          "type": "address"
        }
      ],
      "name": "_openChannel",
      "outputs": [],
      "payable": false,
      "stateMutability": "nonpayable",
      "type": "function",
      "signature": "0xeed32a9d"
    },
    {
      "constant": false,
      "inputs": [
        {
          "name": "_fileName",
          "type": "bytes"
        },
        {
          "name": "_channelId",
          "type": "bytes32"
        },
        {
          "name": "_ipfshash",
          "type": "bytes"
        },
        {
          "name": "v",
          "type": "uint8"
        },
        {
          "name": "r",
          "type": "bytes32"
        },
        {
          "name": "s",
          "type": "bytes32"
        }
      ],
      "name": "_closeChannel",
      "outputs": [],
      "payable": false,
      "stateMutability": "nonpayable",
      "type": "function",
      "signature": "0xe139015f"
    }
  ],
  "bytecode": "0x608060405234801561001057600080fd5b506040516040806111918339810180604052604081101561003057600080fd5b810190808051906020019092919080519060200190929190505050336000806101000a81548173ffffffffffffffffffffffffffffffffffffffff021916908373ffffffffffffffffffffffffffffffffffffffff16021790555081600260006101000a81548173ffffffffffffffffffffffffffffffffffffffff021916908373ffffffffffffffffffffffffffffffffffffffff16021790555080600360006101000a81548173ffffffffffffffffffffffffffffffffffffffff021916908373ffffffffffffffffffffffffffffffffffffffff16021790555050506110738061011e6000396000f3fe608060405260043610610078576000357c0100000000000000000000000000000000000000000000000000000000900463ffffffff16806372779b431461007d5780638da5cb5b146101dc5780639c63ffba14610233578063c5958bda14610374578063e139015f1461043c578063eed32a9d146105c6575b600080fd5b34801561008957600080fd5b506101da600480360360408110156100a057600080fd5b81019080803590602001906401000000008111156100bd57600080fd5b8201836020820111156100cf57600080fd5b803590602001918460018302840111640100000000831117156100f157600080fd5b91908080601f016020809104026020016040519081016040528093929190818152602001838380828437600081840152601f19601f8201169050808301925050505050505091929192908035906020019064010000000081111561015457600080fd5b82018360208201111561016657600080fd5b8035906020019184600183028401116401000000008311171561018857600080fd5b91908080601f016020809104026020016040519081016040528093929190818152602001838380828437600081840152601f19601f820116905080830192505050505050509192919290505050610641565b005b3480156101e857600080fd5b506101f1610829565b604051808273ffffffffffffffffffffffffffffffffffffffff1673ffffffffffffffffffffffffffffffffffffffff16815260200191505060405180910390f35b34801561023f57600080fd5b506102f96004803603602081101561025657600080fd5b810190808035906020019064010000000081111561027357600080fd5b82018360208201111561028557600080fd5b803590602001918460018302840111640100000000831117156102a757600080fd5b91908080601f016020809104026020016040519081016040528093929190818152602001838380828437600081840152601f19601f82011690508083019250505050505050919291929050505061084e565b6040518080602001828103825283818151815260200191508051906020019080838360005b8381101561033957808201518184015260208101905061031e565b50505050905090810190601f1680156103665780820380516001836020036101000a031916815260200191505b509250505060405180910390f35b34801561038057600080fd5b5061043a6004803603602081101561039757600080fd5b81019080803590602001906401000000008111156103b457600080fd5b8201836020820111156103c657600080fd5b803590602001918460018302840111640100000000831117156103e857600080fd5b91908080601f016020809104026020016040519081016040528093929190818152602001838380828437600081840152601f19601f820116905080830192505050505050509192919290505050610ab3565b005b34801561044857600080fd5b506105c4600480360360c081101561045f57600080fd5b810190808035906020019064010000000081111561047c57600080fd5b82018360208201111561048e57600080fd5b803590602001918460018302840111640100000000831117156104b057600080fd5b91908080601f016020809104026020016040519081016040528093929190818152602001838380828437600081840152601f19601f820116905080830192505050505050509192919290803590602001909291908035906020019064010000000081111561051d57600080fd5b82018360208201111561052f57600080fd5b8035906020019184600183028401116401000000008311171561055157600080fd5b91908080601f016020809104026020016040519081016040528093929190818152602001838380828437600081840152601f19601f820116905080830192505050505050509192919290803560ff1690602001909291908035906020019092919080359060200190929190505050610c24565b005b3480156105d257600080fd5b5061063f600480360360608110156105e957600080fd5b8101908080359060200190929190803573ffffffffffffffffffffffffffffffffffffffff169060200190929190803573ffffffffffffffffffffffffffffffffffffffff169060200190929190505050610de9565b005b6000809054906101000a900473ffffffffffffffffffffffffffffffffffffffff1673ffffffffffffffffffffffffffffffffffffffff163373ffffffffffffffffffffffffffffffffffffffff1614151561069c57600080fd5b806001836040518082805190602001908083835b6020831015156106d557805182526020820191506020810190506020830392506106b0565b6001836020036101000a0380198251168184511680821785525050505050509050019150509081526020016040518091039020908051906020019061071b929190610f5a565b507f8bf85d17820ff1ba9e1f46ed1896b5c54e27091df0ca23b77652059745ee1d038282604051808060200180602001838103835285818151815260200191508051906020019080838360005b83811015610783578082015181840152602081019050610768565b50505050905090810190601f1680156107b05780820380516001836020036101000a031916815260200191505b50838103825284818151815260200191508051906020019080838360005b838110156107e95780820151818401526020810190506107ce565b50505050905090810190601f1680156108165780820380516001836020036101000a031916815260200191505b5094505050505060405180910390a15050565b6000809054906101000a900473ffffffffffffffffffffffffffffffffffffffff1681565b60606000809054906101000a900473ffffffffffffffffffffffffffffffffffffffff1673ffffffffffffffffffffffffffffffffffffffff163373ffffffffffffffffffffffffffffffffffffffff16148061099d5750600260009054906101000a900473ffffffffffffffffffffffffffffffffffffffff1673ffffffffffffffffffffffffffffffffffffffff16633f18064a336040518263ffffffff167c0100000000000000000000000000000000000000000000000000000000028152600401808273ffffffffffffffffffffffffffffffffffffffff1673ffffffffffffffffffffffffffffffffffffffff16815260200191505060206040518083038186803b15801561096157600080fd5b505afa158015610975573d6000803e3d6000fd5b505050506040513d602081101561098b57600080fd5b81019080805190602001909291905050505b15156109a857600080fd5b6001826040518082805190602001908083835b6020831015156109e057805182526020820191506020810190506020830392506109bb565b6001836020036101000a03801982511681845116808217855250505050505090500191505090815260200160405180910390208054600181600116156101000203166002900480601f016020809104026020016040519081016040528092919081815260200182805460018160011615610100020316600290048015610aa75780601f10610a7c57610100808354040283529160200191610aa7565b820191906000526020600020905b815481529060010190602001808311610a8a57829003601f168201915b50505050509050919050565b6000809054906101000a900473ffffffffffffffffffffffffffffffffffffffff1673ffffffffffffffffffffffffffffffffffffffff163373ffffffffffffffffffffffffffffffffffffffff16141515610b0e57600080fd5b6001816040518082805190602001908083835b602083101515610b465780518252602082019150602081019050602083039250610b21565b6001836020036101000a03801982511681845116808217855250505050505090500191505090815260200160405180910390206000610b859190610fda565b7f02d56c5cbc21048b4ced8d6c3d50cdf72ba12e7cd56cb786a0e0b090bd721213816040518080602001828103825283818151815260200191508051906020019080838360005b83811015610be7578082015181840152602081019050610bcc565b50505050905090810190601f168015610c145780820380516001836020036101000a031916815260200191505b509250505060405180910390a150565b6000809054906101000a900473ffffffffffffffffffffffffffffffffffffffff1673ffffffffffffffffffffffffffffffffffffffff163373ffffffffffffffffffffffffffffffffffffffff16141515610c7f57600080fd5b600360009054906101000a900473ffffffffffffffffffffffffffffffffffffffff1673ffffffffffffffffffffffffffffffffffffffff166393a67a6f86868686866040518663ffffffff167c010000000000000000000000000000000000000000000000000000000002815260040180868152602001806020018560ff1660ff168152602001848152602001838152602001828103825286818151815260200191508051906020019080838360005b83811015610d4b578082015181840152602081019050610d30565b50505050905090810190601f168015610d785780820380516001836020036101000a031916815260200191505b509650505050505050602060405180830381600087803b158015610d9b57600080fd5b505af1158015610daf573d6000803e3d6000fd5b505050506040513d6020811015610dc557600080fd5b810190808051906020019092919050505050610de18685610641565b505050505050565b6000809054906101000a900473ffffffffffffffffffffffffffffffffffffffff1673ffffffffffffffffffffffffffffffffffffffff163373ffffffffffffffffffffffffffffffffffffffff16141515610e4457600080fd5b600360009054906101000a900473ffffffffffffffffffffffffffffffffffffffff1673ffffffffffffffffffffffffffffffffffffffff1663f657190c8484846040518463ffffffff167c0100000000000000000000000000000000000000000000000000000000028152600401808481526020018373ffffffffffffffffffffffffffffffffffffffff1673ffffffffffffffffffffffffffffffffffffffff1681526020018273ffffffffffffffffffffffffffffffffffffffff1673ffffffffffffffffffffffffffffffffffffffff1681526020019350505050600060405180830381600087803b158015610f3d57600080fd5b505af1158015610f51573d6000803e3d6000fd5b50505050505050565b828054600181600116156101000203166002900490600052602060002090601f016020900481019282601f10610f9b57805160ff1916838001178555610fc9565b82800160010185558215610fc9579182015b82811115610fc8578251825591602001919060010190610fad565b5b509050610fd69190611022565b5090565b50805460018160011615610100020316600290046000825580601f10611000575061101f565b601f01602090049060005260206000209081019061101e9190611022565b5b50565b61104491905b80821115611040576000816000905550600101611028565b5090565b9056fea165627a7a7230582029b154d3f1c58d909fae277b6723f2347aff073ced7acb9e3c7a00b8067812460029",
  "source": "pragma solidity ^0.5.0;\nimport \"./whiteList.sol\";\nimport \"./channel.sol\";\n\ncontract cloudStorage {\n\t\n    event FileAdded(bytes fileName, bytes ipfsHash);\n    event FileRemoved(bytes fileName);\n\n    address public owner;\n\n    mapping(bytes => bytes) File;\n    \n    whiteList _whiteList;\n\n    Channel _channel;\n\n    constructor(address _wl, address _ch) public {\n        owner = msg.sender;\n        _whiteList = whiteList(_wl);\n        _channel = Channel(_ch);\n    }\n\n    modifier onlyOwner() {\n        require(msg.sender == owner);\n        _;\n    }\n\n    function addOrUpdateFile(bytes memory _FileName, bytes memory _ipfsHash) \n\t\tpublic \n\t\tonlyOwner\n\t{\n        File[_FileName] = _ipfsHash;\n        emit FileAdded(_FileName, _ipfsHash);\n    }\n\n    function removeFile(bytes memory _FileName) \n\t\tpublic\n\t\tonlyOwner\n\t{\n        delete File[_FileName];\n        emit FileRemoved(_FileName);\n    }\n\n    function getFile(bytes memory _FileName) public view returns (bytes memory)  {\n        require(msg.sender == owner || _whiteList.getWhitelisted(msg.sender));\n        return File[_FileName];\n    }\n\n    function _openChannel(bytes32 _channelId, address _sender, address _receiver)\n        public\n        onlyOwner\n    {\n        _channel.openChannel(_channelId, _sender, _receiver);\n    }\n\n    function _closeChannel(bytes memory _fileName, bytes32 _channelId, bytes memory _ipfshash, uint8 v, bytes32 r, bytes32 s)\n        public\n        onlyOwner\n    {\n        _channel.closeChannel(_channelId, _ipfshash, v, r, s);\n        addOrUpdateFile(_fileName, _ipfshash);\n    }\n}\n",
  "sourcePath": "/home/wayne/Desktop/blockchain/Semester2/AdSmartContract/dev-tools-truffle-example/contracts/cloudStorage.sol",
  "compiler": {
    "name": "solc",
    "version": "0.5.0+commit.1d4f565a.Emscripten.clang"
  },
  "schemaVersion": "3.0.3",
  "updatedAt": "2019-03-30T19:08:03.376Z",
  "devdoc": {
    "methods": {}
  },
  "userdoc": {
    "methods": {}
  }
}